:100000000C9456000C9468000C9468000C946800E2
:100010000C9468000C9468000C9468000C946800C0
:100020000C9468000C9468000C9468000C946800B0
:100030000C9468000C9468000C9468000C946800A0
:100040000C9426040C9468000C9468000C946800CE
:100050000C94D0030C9468000C9468000C94A903D1
:100060000C9468000C9468000C9468000C94680070
:100070000C9468000C9468000C9468000C94D504EF
:100080000C9468000C9468000C9468000C94FB03BA
:100090000C9468000C9468000C9468000C94680040
:1000A0000C9468000C9468000C94680011241FBE26
:1000B000CFEFDAE0DEBFCDBF21E0A0E0B1E001C0CC
:1000C0001D92A033B207E1F70E9484050C94EF055E
:1000D0000C94000085B7806885BF85B7806885BFB0
:1000E000E1E6F0E080E880831082108210821082C6
:1000F0000895CF93DF93A0ECB0E08C9181608C9356
:10010000E2ECF0E0808181608083C3ECD0E0888104
:100110008D7F888388818E7F88838C918F7E8C935E
:100120008C9180628C9380818B7F808380818860BA
:100130008083EFEBF0E083E0808388EE8093D10052
:1001400010828EE58093D0008093D200E1ECF0E045
:1001500080818860808380818B7F808380818D7F98
:100160008083808181608083DF91CF910895EEE666
:10017000F0E080818160808385B5836085BD86E005
:1001800086BDEFE6F0E0808181628083109280007E
:10019000B59AE1E8F0E080818068808380818F7B80
:1001A000808380818260808320E036E03093850008
:1001B00020938400E1E7F0E08081816280831092E7
:1001C0009000C59AE1E9F0E08081806880838081B9
:1001D0008F7B808380818260808330939500209321
:1001E0009400089584B18FEF84B915B88AB1886EF0
:1001F0008AB980B3806E80BB3E9A769A10922C01A9
:1002000010922D0110922E0110922F0110920801D0
:100210001092090110920A0110920B0110921E0116
:1002200010921F01109220011092210110921301CF
:1002300010921201109211011092100110921501EA
:1002400010921401109219011092180110920701D6
:100250001092060110921D0110921C0110922401AF
:10026000109225011092260110922701109202018E
:1002700010920301109204011092050110920C01DA
:1002800010920D0110920E0110920F0110921B019D
:1002900010921A0110920101109200011092230194
:1002A0001092220110921701109216010E947900FB
:1002B0000E94B7000895ECEBF0E08081846A8083AF
:1002C00080818823ECF780E48093BB0084E88093EE
:1002D000BC00ECEBF0E080818823ECF785E08093B4
:1002E000BB0084E88093BC00ECEBF0E080818823C5
:1002F000ECF78AE28093BB0084E88093BC00ECEBCF
:10030000F0E080818823ECF7ECEBF0E080818469F9
:1003100080838081846A808380818823ECF780E4F5
:100320008093BB0084E88093BC00ECEBF0E080811C
:100330008823ECF71092BB0084E88093BC00ECEBC0
:10034000F0E080818823ECF71092BB0084E8809372
:10035000BC00ECEBF0E080818823ECF7ECEBF0E004
:10036000808184698083089591958195910985366E
:10037000910514F084E690E0262F372F25363105BD
:1003800014F024E630E08C394FEF940714F48CE934
:100390009FEFAC014C595F4F6FE3649FC001659FB5
:1003A000900D112468EC70E00E949605AB01425C50
:1003B0005F4F2C398FEF380714F42CE93FEF2C599D
:1003C0003F4F5FE3529FC001539F900D112468EC93
:1003D00070E00E949605625C7F4FEFEBF0E01082C8
:1003E0006093D00010824093D2000895ECE7F0E0D3
:1003F000108290819F73908390819F7D9083ABE763
:10040000B0E09C919F7D9C939081917E90839081A0
:10041000892B8083EAE7F0E0808187688083808190
:1004200080648083808186FDFDCF809178009091EB
:10043000790008955E9A2FEF81EE94E0215080407C
:100440009040E1F700C0000081E00E94F601909327
:100450001B0180931A0184E00E94F6019093010130
:100460008093000108950F931F93CF93DF93C9E109
:10047000D0E000E010E080E00E94F601080F191FB4
:100480002197C9F79801AFEAB7E40E94CC05081B91
:10049000190B16950795800F911F929582958F7075
:1004A00089279F7089279C012C56334022363105BD
:1004B00058F029583F4F2737310548F0853F924083
:1004C00048F08FEF9FEF08C081E090E005C082E028
:1004D00090E002C083E090E0DF91CF911F910F91F7
:1004E000089540912C0150912D0160912E01709141
:1004F0002F018091240190912501A0912601B091B6
:10050000270184179507A607B70708F062C00E9465
:10051000330282309105E9F08330910591F1019722
:1005200009F057C02C9A2D9880912C0190912D01A3
:10053000A0912E01B0912F0188519C4FAF4FBF4F1A
:100540008093240190932501A0932601B093270165
:10055000089585B1806385B980912C0190912D011A
:10056000A0912E01B0912F0188519C4FAF4FBF4FEA
:100570008093240190932501A0932601B093270135
:1005800008952C9895B180E2892785B92D9B0DC0DF
:1005900080912C0190912D01A0912E01B0912F01FD
:1005A0008C599F4FAF4FBF4F0CC080912C01909141
:1005B0002D01A0912E01B0912F018056904FAF4F89
:1005C000BF4F8093240190932501A0932601B093FF
:1005D000270108950F931F93CF93DF9381E00E942B
:1005E000F601EC0184E00E94F60120911A0130919D
:1005F0001B0122533109C217D3070CF046C00091EA
:100600002C0110912D0120912E0130912F0140914C
:100610000C0150910D0160910E0170910F01401776
:10062000510762077307F0F420911601309117010A
:100630002F5F3F4F309317012093160140912C01FB
:1006400050912D0160912E0170912F014E5C5F4FF2
:100650006F4F7F4F40930C0150930D0160930E013B
:1006600070930F012091160130911701233331054A
:100670002CF4209116013091170102C022E330E0E2
:10068000309317012093160104C0109217011092A5
:100690001601209100013091010122533109821786
:1006A00093070CF043C040912C0150912D016091B3
:1006B0002E0170912F018091020190910301A09170
:1006C0000401B091050184179507A607B707E0F468
:1006D00080912201909123010196909323018093B0
:1006E000220180912C0190912D01A0912E01B091B9
:1006F0002F01C296A11DB11D8093020190930301A9
:10070000A0930401B09305018091220190912301EF
:10071000C3972CF4809122019091230102C082E3BF
:1007200090E0909323018093220104C01092230152
:10073000109222016091160170911701809122019F
:10074000909123010E94B401DF91CF911F910F91ED
:1007500008951F920F920FB60F9211248F939F93BB
:10076000AF93BF9380912C0190912D01A0912E0108
:10077000B0912F010196A11DB11D80932C01909382
:100780002D01A0932E01B0932F0186E086BDBF916D
:10079000AF919F918F910F900FBE0F901F90189562
:1007A0001F920F920FB60F9211248F939F93AF93C6
:1007B000BF938091080190910901A0910A01B09125
:1007C0000B019358AF4FBF4F8093080190930901DD
:1007D000A0930A01B0930B0180E096E0909385000E
:1007E00080938400BF91AF919F918F910F900FBE26
:1007F0000F901F9018951F920F920FB60F92112411
:100800008F939F93AF93BF9380911E0190911F018F
:10081000A0912001B09121019358AF4FBF4F809319
:100820001E0190931F01A0932001B093210180E04D
:1008300096E09093950080939400BF91AF919F9123
:100840008F910F900FBE0F901F9018951F920F92CF
:100850000FB60F9211240F931F932F933F934F9333
:100860005F936F937F938F939F93AF93BF93EF9318
:10087000FF938091840090918500409108015091F0
:10088000090160910A0170910B0196509695879528
:100890008A019B01080F191F211D311D00930801BA
:1008A0001093090120930A0130930B0180910801F4
:1008B00090910901A0910A01B0910B01AC01BD0119
:1008C000440F551F661F771F840F951FA61FB71F64
:1008D000AC01BD01440F551F661F771F440F551F04
:1008E000661F771F840F951FA61FB71F80930801EF
:1008F00090930901A0930A01B0930B012091080184
:100900003091090140910A0150910B0160EC71E9AD
:1009100086E59CE00E94AA05309313012093120102
:1009200080911401909115010E969093150180937A
:100930001401109208011092090110920A011092FC
:100940000B01809106019091070199231CF041E071
:1009500050E002C04FEF5FEF209112013091130180
:10096000429FC001439F900D529F900D1124909380
:1009700013018093120180E096E0909385008093AC
:100980008400B09AFF91EF91BF91AF919F918F91A9
:100990007F916F915F914F913F912F911F910F9197
:1009A0000F900FBE0F901F9018951F920F920FB6C9
:1009B0000F9211240F931F932F933F934F935F93A5
:1009C0006F937F938F939F93AF93BF93EF93FF9317
:1009D000809194009091950040911E0150911F01CB
:1009E00060912001709121019650969587958A011A
:1009F0009B01080F191F211D311D00931E0110932B
:100A00001F01209320013093210180911E019091BC
:100A10001F01A0912001B0912101AC01BD01440F43
:100A2000551F661F771F840F951FA61FB71FAC01A8
:100A3000BD01440F551F661F771F440F551F661FCA
:100A4000771F840F951FA61FB71F80931E019093D9
:100A50001F01A0932001B093210120911E0130912C
:100A60001F01409120015091210160EC71E986E560
:100A70009CE00E94AA0530931101209310018091FF
:100A80001801909119010E96909319018093180105
:100A900010921E0110921F0110922001109221014C
:100AA00080911C0190911D0199231CF041E050E0C0
:100AB00002C04FEF5FEF2091100130911101429F72
:100AC000C001439F900D529F900D112490931101EE
:100AD0008093100180E096E09093950080939400BD
:100AE000C09AFF91EF91BF91AF919F918F917F91AC
:100AF0006F915F914F913F912F911F910F910F90A7
:100B00000FBE0F901F9018950E946A000E94F2007D
:100B1000469A8CE08093B8000E945B0178940E9412
:100B20001A020E94EA020E947102FBCF97FB072E75
:100B300016F4009407D077FD09D00E94DB0507FC6E
:100B400005D03EF4909581959F4F089570956195DD
:100B50007F4F0895A1E21A2EAA1BBB1BFD010DC0F9
:100B6000AA1FBB1FEE1FFF1FA217B307E407F5075D
:100B700020F0A21BB30BE40BF50B661F771F881F39
:100B8000991F1A9469F760957095809590959B01CF
:100B9000AC01BD01CF010895A29FB001B39FC00178
:100BA000A39F700D811D1124911DB29F700D811D99
:100BB0001124911D0895AA1BBB1B51E107C0AA1F58
:100BC000BB1FA617B70710F0A61BB70B881F991FEE
:100BD0005A95A9F780959095BC01CD010895F89498
:020BE000FFCF45
:00000001FF
